:020000040800F2
:1000000000000220D91C0008390600083B06000841
:100010003D0600083F0600084106000800000000F9
:10002000000000000000000000000000911A00081D
:100030004306000800000000311B000845060008C8
:10004000291D0008291D0008291D0008291D000878
:10005000291D0008291D0008291D0008291D000868
:10006000291D0008291D0008291D0008291D000858
:10007000291D0008291D0008291D0008291D000848
:10008000291D0008291D0008291D0008291D000838
:10009000291D0008291D0008291D0008291D000828
:1000A000291D0008291D0008291D0008291D000818
:1000B000291D0008291D0008291D0008291D000808
:1000C000291D0008291D0008291D0008291D0008F8
:1000D000291D0008291D0008291D0008291D0008E8
:1000E000291D0008291D0008291D0008291D0008D8
:1000F000291D0008291D0008291D0008291D0008C8
:10010000291D0008291D0008291D0008291D0008B7
:10011000291D0008291D0008291D0008291D0008A7
:10012000291D0008291D0008291D0008291D000897
:10013000291D0008291D0008291D0008291D000887
:10014000291D0008291D0008291D0008291D000877
:10015000291D0008291D0008291D0008291D000867
:10016000291D0008291D0008291D0008291D000857
:10017000291D0008291D0008291D00080000000095
:08018000291D0008291D0008DB
:1001900010B5054C237833B9044B13B10448AFF3C1
:1001A00000800123237010BD10000020000000001B
:1001B000841D000808B5034B1BB103490348AFF386
:1001C000008008BD0000000014000020841D00080D
:1001D00053B94AB9002908BF00281CBF4FF0FF31AE
:1001E0004FF0FF3000F074B9ADF1080C6DE904CEAA
:1001F00000F006F8DDF804E0DDE9022304B0704702
:100200002DE9F047089E04468846002B40F0858083
:100210008A42154648D9B2FA82F24AB1C2F12007A1
:1002200001FA02F320FA07F7954047EA03089440E1
:100230004FEA154E230CB8FBFEF71FFA85FC0EFBA8
:10024000178843EA084307FB0CF1994209D9EB18D8
:1002500007F1FF3080F0E380994240F2E080023FF6
:100260002B445B1AA4B2B3FBFEF00EFB103344EA3E
:10027000034400FB0CFCA44509D92C1900F1FF3301
:1002800080F0CB80A44540F2C88002382C4440EA7C
:100290000740A4EB0C0400271EB1D4400023C6E99C
:1002A00000433946BDE8F087002A53D0B2FA82F203
:1002B000002A40F0B680491B4FEA154E1FFA85F818
:1002C0000127B1FBFEFC230C0EFB1C1143EA01438A
:1002D00008FB0CF1994207D9EB180CF1FF3002D260
:1002E000994200F2EC808446591AA3B2B1FBFEF0A9
:1002F0000EFB101443EA044408FB00F8A04507D99C
:100300002C1900F1FF3302D2A04500F2DC80184620
:10031000A4EB080440EA0C40BEE78B4208D9002E4B
:1003200078D00027C6E9000138463946BDE8F08795
:10033000B3FA83F77FB98B4202D3824200F2BD80C9
:10034000841A61EB030301209846002EA9D0C6E968
:100350000048A6E7FFDEC7F12005BB4022FA05FCF6
:100360004CEA030C01FA07F420FA05F821FA05F328
:100370004FEA1C4E48EA0404B3FBFEF9210C0EFBC5
:1003800019331FFA8CF841EA034309FB08FA9A452E
:1003900002FA07F200FA07F10BD91CEB030309F18B
:1003A000FF3080F088809A4540F28580A9F10209EB
:1003B0006344A3EB0A03A4B2B3FBFEF00EFB1033BD
:1003C00044EA034400FB08F8A04508D91CEB0404E8
:1003D00000F1FF336BD2A04569D90238644440EA8A
:1003E0000940A4EB0804A0FB02894C45C6464B46D5
:1003F00054D351D0002E69D0B1EB0E0264EB03044C
:1004000004FA05F522FA07F3FC401D43C6E900543F
:10041000002746E73746304643E7184637E70746A2
:100420001FE7C2F1200320FA03F7954001FA02F01A
:1004300021FA03F34FEA154E3843010CB3FBFEF7E4
:100440001FFA85F80EFB173341EA034107FB08F357
:100450008B4204FA02F407D9691807F1FF3C28D24D
:100460008B4226D9023F2944CB1A81B2B3FBFEF05E
:100470000EFB103341EA034100FB08F38B4207D91E
:10048000691800F1FF3C10D28B420ED90238294482
:10049000C91A40EA074714E74145ABD2B8EB020E50
:1004A00069EB0C0201381346A4E76046F0E71846F2
:1004B00095E76746D8E781467BE7384645E7ACF1E4
:1004C000020C2B4410E702382C4421E73746E8E6BB
:1004D000704700BF30B587B00024019402940394A4
:1004E0000494059400940D4B1A6B42F010021A63A9
:1004F0001B6B03F010030093009B094D2246012162
:10050000284600F077FC012301930293039404949E
:1005100001A9284600F08AFB07B030BD0038024030
:100520000010024008B5012001F03BF9FBE7000094
:1005300008B50121054800F063FC4FF4FA7000F0A3
:1005400011FD012001F02DF9F3E700BF001002407A
:1005500030B595B03022002108A801F00BFC002432
:100560000394049405940694079401941B4B1A6C0D
:1005700042F080521A641B6C03F080530193019B7C
:100580000294174B1A6842F480421A601B6803F405
:1005900080430293029B0225089501230B931023AD
:1005A0000C930E950F9408231093A8231193129582
:1005B0000423139308A800F06DF80F230393049508
:1005C00005944FF4A05306934FF4805307930521ED
:1005D00003A800F07DFA15B030BD00BF003802401E
:1005E0000070004000B58BB000F090FCFFF7B0FF4A
:1005F000FFF770FF0D4C05AD26460FCE0FC53368D3
:100600002B60002105A801F0B2F8094B18606D4677
:1006100014340FCC0FC523682B600021684601F00D
:10062000A6F8044B186001F09DF8FEE79C1D000839
:10063000783D00207C3D00207047FEE7FEE7FEE7A6
:10064000FEE7704708B500F07BFC01F0B3F808BD89
:1006500000B583B0002200920D4B596C41F48041EB
:100660005964596C01F48041009100990192196C10
:1006700041F0805119641B6C03F080530193019B7E
:100680000F216FF0010000F0D1FB03B05DF804FB17
:1006900000380240002800F0B98170B582B00446ED
:1006A000036813F0010F3BD0A64B9B6803F00C03CB
:1006B000042B2CD0A34B9B6803F00C03082B21D0F8
:1006C0006368B3F5803F4FD0B3F5A02F52D09D4B58
:1006D0001A6822F480321A601A6822F480221A60A2
:1006E0006368002B50D000F037FC0546954B1B6823
:1006F00013F4003F14D100F02FFC401B6428F5D9FF
:1007000003208AE18F4B5B6813F4800FD8D08D4BA8
:100710001B6813F4003F03D06368002B00F078815E
:10072000236813F0020F54D0864B9B6813F00C0F14
:100730003ED0844B9B6803F00C03082B33D0E36856
:10074000002B67D0804B01221A6000F005FC0546A3
:100750007C4B1B6813F0020F53D100F0FDFB401BD4
:100760000228F5D9032058E1764A136843F4803310
:100770001360B5E7734B1A6842F480221A601A6856
:1007800042F480321A60ABE700F0E6FB05466D4BA1
:100790001B6813F4003FC3D000F0DEFB401B64284D
:1007A000F5D9032039E1674B5B6813F4800FC6D19C
:1007B000644B1B6813F0020F03D0E368012B40F079
:1007C0002981604A136823F0F803216943EAC103D1
:1007D0001360236813F0080F40D0636963B35B4B69
:1007E00001221A6000F0B8FB0546564B5B6F13F010
:1007F000020F33D100F0B0FB401B0228F5D90320D3
:100800000BE1504A136823F0F803216943EAC1035E
:100810001360DEE74C4B00221A6000F09DFB05469A
:10082000484B1B6813F0020FD3D000F095FB401B20
:100830000228F5D90320F0E0444B00221A6000F0B2
:100840008BFB05463F4B5B6F13F0020F06D000F0A9
:1008500083FB401B0228F5D90320DEE0236813F058
:10086000040F78D0374B1B6C13F0805F33D100231B
:100870000193344B1A6C42F080521A641B6C03F0E3
:1008800080530193019B0125314B1B6813F4807F3A
:1008900023D0A368012B34D0052B38D0294B1A6FF5
:1008A00022F001021A671A6F22F004021A67A36885
:1008B000002B36D000F050FB0646224B1B6F13F086
:1008C000020F47D100F048FB801B41F28833984269
:1008D000F3D90320A1E00025D6E71D4A136843F4AD
:1008E0008073136000F038FB0646194B1B6813F445
:1008F000807FCED100F030FB801B0228F5D9032089
:100900008BE0104A136F43F001031367CFE70D4BE1
:100910001A6F42F004021A671A6F42F001021A6756
:10092000C5E700F019FB0646064B1B6F13F0020FDC
:1009300010D000F011FB801B41F288339842F3D9AC
:1009400003206AE00038024000004742800E474220
:1009500000700040E5B9A369002B5DD0314A926870
:1009600002F00C02082A5AD0022B17D02E4B00227C
:100970001A6000F0F1FA04462A4B1B6813F0007F5E
:1009800042D000F0E9FA001B0228F5D9032044E028
:10099000244A136C23F080531364DCE7224B0022BB
:1009A0001A6000F0D9FA05461E4B1B6813F0007F51
:1009B00006D000F0D1FA401B0228F5D903202CE024
:1009C000E369226A1343626A43EA8213A26A520805
:1009D000013A43EA0243E26A43EA0263114A53607E
:1009E000114B01221A6000F0B7FA04460D4B1B6848
:1009F00013F0007F06D100F0AFFA001B0228F5D9F2
:100A000003200AE0002008E0002006E001207047F3
:100A1000012002E0012000E0002002B070BD0120B2
:100A2000FBE700BF0038024060004742254B9B684F
:100A300003F00C03042B40D0082B40D170B5214BA0
:100A40005A6802F03F025B6813F4800F12D01D4B0E
:100A50005968C1F3881100231B48A1FB0001FFF76F
:100A6000B7FB184B5B68C3F3014301335B00B0FB7A
:100A7000F3F070BD134B5868C0F38810054600268C
:100A800043011B1A66EB0604A10141EA9361980138
:100A9000C01A61EB0401CB0043EA5073C40019464D
:100AA000601946EB01018B0243EA90538402204611
:100AB00019463346FFF78CFBD3E7034870470348DA
:100AC000704700BF0038024040787D010024F400E8
:100AD000002800F09A8070B50446504B1B6803F064
:100AE0000F038B4208D2CBB24C4A1370136803F049
:100AF0000F038B4240F08B80236813F0020F17D056
:100B000013F0040F04D0464A936843F4E053936013
:100B1000236813F0080F04D0414A936843F46043FC
:100B200093603F4A936823F0F003A0680343936007
:100B30000D46236813F0010F32D06368012B21D0DA
:100B40009A1E012A25D9364A126812F0020F60D087
:100B500033498A6822F0030213438B6000F0FCF9EA
:100B600006462F4B9B6803F00C036268B3EB820FC1
:100B700016D000F0F1F9801B41F288339842F0D989
:100B8000032041E0264A126812F4003FE0D1012020
:100B90003AE0234A126812F0007FD9D1012033E0F5
:100BA0001E4B1B6803F00F03AB4207D9EAB21B4B85
:100BB0001A701B6803F00F03AB422CD1236813F0AB
:100BC000040F06D0164A936823F4E053E1680B4300
:100BD0009360236813F0080F07D0114A936823F439
:100BE0006043216943EAC1039360FFF71FFF0C4B89
:100BF0009B68C3F303130B4AD35CD8400A4B1860BD
:100C00000F2000F05DF9002070BD01207047012029
:100C1000FAE70120F8E70120F6E700BF003C0240B8
:100C200000380240DC1D00080800002000230F2BC4
:100C300000F2D680F0B482B039E0072200E0002252
:100C4000B2403A430235674E46F82520664A156899
:100C5000E24302EA05064F6817F4803F01D044EAF8
:100C60000506614D2E606D6802EA05064F6817F4AF
:100C7000003F01D044EA05065B4D6E60AD6802EAB4
:100C800005064F6817F4801F01D044EA0506564D4B
:100C9000AE60ED682A404E6816F4001F01D044EAA9
:100CA0000502514CE26001330F2B00F296800122C5
:100CB0009A400C681440A242F5D14D68022D01D033
:100CC000122D10D1DE08083650F826C003F00705B3
:100CD000AF000F25BD402CEA050C0D69BD4045EA6B
:100CE0000C0540F8265006685F000325BD40ED4323
:100CF00005EA060C4E6806F00306BE4046EA0C06FE
:100D000006604E6806F1FF3CBCF1010F03D9112EBD
:100D100001D0122E10D1866805EA060CCE68BE40BE
:100D200046EA0C068660466826EA02024E68C6F36A
:100D300000169E4016434660C26815408A68BA4055
:100D40002A43C2604A6812F0805FACD00022019250
:100D5000264A556C45F480455564526C02F4804235
:100D60000192019A9D08AE1C1E4A52F8267003F0AB
:100D7000030296000F22B24027EA02071C4A904263
:100D80003FF45DAF02F5806290421AD002F58062B6
:100D9000904218D002F58062904216D002F580622F
:100DA000904214D002F58062904212D002F5806227
:100DB000904210D002F5806290423FF43EAF08228C
:100DC0003EE701223CE702223AE7032238E7042209
:100DD00036E7052234E7062232E702B0F0BC70475E
:100DE000704700BF00380140003C0140003802401D
:100DF000000002400AB181617047090481617047B7
:100E00004369594041617047074AD36823F4E0635E
:100E10001B041B0C000200F4E060184340F0BF60AC
:100E200040F40030D060704700ED00E030B4174B64
:100E3000DB68C3F30223C3F10704042C28BF042496
:100E40001D1D062D01D9033B00E000234FF0FF35A7
:100E500005FA04F421EA0401994005FA03F322EAB1
:100E600003031943002809DB0901C9B200F16040FE
:100E700000F5614080F8001330BC704700F00F00AF
:100E80000901C9B2024B1954F6E700BF00ED00E0BA
:100E900014ED00E00138B0F1807F0AD2064B5860B3
:100EA000064AF02182F823100020986007221A6079
:100EB00070470120704700BF10E000E000ED00E047
:100EC00010B504460E4B18784FF47A73B3FBF0F369
:100ED0000C4A1068B0FBF3F0FFF7DCFF68B90F2C89
:100EE00001D901200AE0002221464FF0FF30FFF730
:100EF0009DFF054B1C60002000E0012010BD00BFDD
:100F000000000020080000200400002008B50B4B62
:100F10001A6842F400721A601A6842F480621A6019
:100F20001A6842F480721A600320FFF76DFF0F20E9
:100F3000FFF7C6FFFFF78CFB002008BD003C024016
:100F4000034A1168034B1B780B441360704700BFC2
:100F5000803D002000000020014B1868704700BF52
:100F6000803D002038B50446FFF7F6FF0546B4F192
:100F7000FF3F02D0044B1B781C44FFF7EDFF401BE2
:100F8000A042FAD338BD00BF000000200F49D1F8BD
:100F9000883043F47003C1F888300D4B1A6842F072
:100FA00001021A60002098601A6822F0847222F40C
:100FB00080321A60074A5A601A6822F480221A6046
:100FC000D8604FF000638B60704700BF00ED00E019
:100FD000003802401030002400F1080343604FF055
:100FE000FF328260C3600361002303607047002307
:100FF0000361704743684B609A688A6051609960EA
:101000000861036801330360704730B40D68B5F1BF
:10101000FF3F02D000F1080202E0026904E01A4634
:1010200053681C68AC42FAD953684B6099608A6077
:101030005160086103680133036030BC7047036985
:10104000416882688A60416851605A68824205D06E
:1010500000220261186801381860704782685A607F
:10106000F6E70000084B1B681B6823B9074B4FF0DD
:10107000FF321A607047044B1B68DB68DB685A68F4
:10108000024B1A60704700BF3000002008010020AA
:1010900010B50446006B00F079FC204600F076FCA9
:1010A00010BD2DE9F04780469946089D099F0A9C8E
:1010B000266B02F18042013A06EB820626F0070613
:1010C00000230F2B06D8CA5CE01880F834200AB140
:1010D0000133F6E7002384F84330062D00D90625B6
:1010E000E56265644FF0000AC4F848A0201DFFF7D0
:1010F0007EFF04F11800FFF77AFF2461C5F10705B0
:10110000A5616462C4F84CA084F850A04A464146E8
:10111000304600F0A7FC206007B13C60BDE8F087D6
:1011200038B50024062C08D804EB840293000E483E
:101130001844FFF751FF0134F4E70C4D2846FFF740
:101140004BFF0B4C2046FFF747FF0A48FFF744FFD1
:101150000948FFF741FF0948FFF73EFF084B1D60B4
:10116000084B1C6038BD00BF38000020DC000020A8
:10117000F0000020100100203C0100202801002088
:10118000300000203400002010B5044600F092FC2E
:10119000204A1368013313601F4B1B685BB11F4B60
:1011A0001B686BB91C4B1B68DA6AE36A9A4207D862
:1011B000194B1C6004E0184B1C601368012B26D0EF
:1011C000174A136801331360E36A01229A401549F4
:1011D000086802430A6003EB83039A00211D12484A
:1011E0001044FFF707FF00F087FC0C4B1B686BB146
:1011F000094B1B68DA6AE36A9A4207D20B4B4FF03D
:1012000080521A60BFF34F8FBFF36F8F10BDFFF78F
:1012100087FFD5E7C40000202C0000202401002017
:10122000D4000020D80000203800002004ED00E0A9
:1012300070B504460E461D4B1D681D4B18680430E2
:10124000FFF7FDFE50B91A4B1B68DA6A012303FA57
:1012500002F218490B6823EA02030B60B4F1FF3F66
:101260000DD02C44124B1B685C60A54210D9124B68
:1012700018680F4B19680431FFF7C7FE70BD002EC8
:10128000EFD00B4B196804310C48FFF7B3FEF5E7BC
:101290000B4B1868064B19680431FFF7B6FE094B73
:1012A0001B68A342EAD9074B1C60E7E75001002006
:1012B0002C000020D800002034000020280100204D
:1012C00030000020080100202DE9F04385B00746DA
:1012D000884614469946900000F0D4FAE8B10646D4
:1012E000542000F0CFFA054698B10663D5B100232B
:1012F000039302950D9B01930C9B00934B46224652
:1013000041463846FFF7CDFE2846FFF73DFF012056
:1013100005E0304600F03AFBE8E74FF0FF3005B05B
:10132000BDE8F0834FF0FF30F9E7000000B583B06F
:10133000174B019300230093802216491648FFF7AC
:10134000C3FF012805D0B0F1FF3F17D003B05DF80F
:1013500004FB4FF0500383F31188BFF36F8FBFF38B
:101360004F8F0E4B4FF0FF321A600D4B01221A6067
:101370000C4B00221A6000F039FCE7E74FF05003F5
:1013800083F31188BFF36F8FBFF34F8FFEE700BF6A
:1013900004010020EC1D000875160008080100205B
:1013A0002401002050010020024A13680133136019
:1013B000704700BFD0000020F8B53A4B1B68002BE7
:1013C00064D1394B1D6801351D60C5B9374B1B68A9
:1013D0001B6843B14FF0500383F31188BFF36F8F45
:1013E000BFF34F8FFEE7314A1168314B1868106028
:1013F0001960304A136801331360FFF733FE2E4B38
:101400001B68AB4238D900242C4B1B68DB6A03EB0A
:1014100083039A002A4B9B58012B3CD901243AE0C4
:101420000124224B1B681B6843B3204B1B68DB68FD
:10143000DE6873689D4226D3371D3846FFF7FFFDEF
:10144000B36A1BB106F11800FFF7F9FDF36A012238
:101450009A401C49086802430A6003EB83039A0020
:10146000394617481044FFF7C5FDF26A134B1B6855
:10147000DB6A9A42D4D2D4E70024D2E70E4B4FF075
:10148000FF321A60C0E70C4A1360BDE70E4A1368CA
:101490000133136000240D4B1B6803B10124204667
:1014A000F8BD00BFD0000020500100203000002017
:1014B000340000200C010020080100202C00002036
:1014C00038000020D8000020CC000020540100206B
:1014D00038B5354B1B6843B94FF0500383F311887F
:1014E000BFF36F8FBFF34F8FFEE700F0E3FA2E4B91
:1014F0001A68013A1A601B68002B4DD12B4B1B68F0
:101500000BB9002449E00024294B1B681BB3284B6E
:10151000DB68DC6804F11800FFF791FD251D284603
:10152000FFF78DFDE36A01229A40224908680243D1
:101530000A6003EB83039A0029461F481044FFF713
:1015400059FDE26A1D4B1B68DB6A9A42DCD31C4BD7
:1015500001221A60D8E70CB1FFF784FD194B1C6813
:1015600074B9174B1B68E3B1174B4FF080521A60E8
:10157000BFF34F8FBFF36F8F01240EE0013C07D004
:10158000FFF71AFF0028F9D00D4B01221A60F5E78A
:101590000C4B00221A60E4E7002400F0ADFA20466C
:1015A00038BD0024F9E700BFD0000020C4000020AF
:1015B00010010020D8000020380000202C0000205E
:1015C00054010020CC00002004ED00E010B5A8B1CB
:1015D00004460F4B1B6843B14FF0500383F311884F
:1015E000BFF36F8FBFF34F8FFEE7FFF7DDFE0021E4
:1015F0002046FFF71DFEFFF76BFF38B9054B4FF094
:1016000080521A60BFF34F8FBFF36F8F10BD00BFC2
:10161000D000002004ED00E0134B1B681BB310B595
:1016200002E0114B1B68EBB1FFF7BEFE0F4B1C68CD
:10163000FFF74EFF002CF4D000F03CFA0B4BDB68B8
:10164000DC68201DFFF7FBFC094A1368013B1360AF
:10165000054A1368013B136000F04EFA2046FFF77D
:1016600017FDDEE710BD7047C80000203C010020D8
:10167000C400002008B5FFF7CFFF064B1B68012B05
:10168000F9D9054B4FF080521A60BFF34F8FBFF36B
:101690006F8FF0E73800002004ED00E0214B1B685D
:1016A0001BB1214B01221A6070471F4B00221A60A8
:1016B0001E4B1B68B3FA83F3DBB2C3F11F0303EBCA
:1016C00083018A001A498A5842B94FF0500383F3C4
:1016D0001188BFF36F8FBFF34F8FFEE710B414482C
:1016E0009A00D418A10001444C6864684C601A4404
:1016F00091000831084484420BD003EB83039A0025
:101700000B4B13445B68DA680A4B1A605DF8044BB4
:101710007047606803EB83029100054A0A445060F9
:10172000EBE700BFD000002054010020D8000020CB
:10173000380000202C000020054B1B6833B1054BFE
:101740001B680BB1002070470220704701207047D2
:1017500024010020D0000020842801D003307047ED
:101760000020704708B5FFF7E1FD002008BDF0B587
:1017700085B00F46446805680669B0F90800FFF7B0
:10178000EBFF03AB019300903B46B2B229462046E3
:10179000FFF79AFD012802D1039805B0F0BD0020A3
:1017A000FBE708B5034600B901231846FFF70EFF13
:1017B000002008BD08B5FFF7BFFF012800D108BD14
:1017C00000F0E8F9FBE70000124A12F0070F07D01B
:1017D000D11D21F00701C1F5705313440A4601E001
:1017E0004FF470530C480260002141601344083BE1
:1017F00023F007030948036059601960991A516082
:101800001360074B1960074B1960074B4FF00042FC
:101810001A6070475C010020683D002058010020DC
:10182000643D0020603D00205C3D002010B4134A60
:1018300000E01A4613688342FBD35168541884426F
:101840000AD041684418A3420BD00360904200D0F4
:1018500010605DF8044B70474068014451601046C9
:10186000EFE7074C2468A34206D05B681944416047
:1018700013681B680360E9E70460E7E7683D002040
:101880005801002070B50446FFF78EFD3A4B1B68E7
:10189000BBB13A4B1B681C4256D1ACB1083414F0B2
:1018A000070F11D024F00704083404F007035BB1DC
:1018B0004FF0500383F31188BFF36F8FBFF34F8F47
:1018C000FEE7FFF781FFE4E7002C3FD02C4B1B68BD
:1018D000A3424AD32B4B1D6801E02B4615466A688C
:1018E000A24202D22A68002AF7D1234A1268AA42E9
:1018F0003DD01E6808362A681A606B681B1B102BC7
:1019000010D9281910F0070F08D04FF0500383F3B7
:101910001188BFF36F8FBFF34F8FFEE743606C609A
:10192000FFF784FF6A6816490B689B1A0B6016491B
:1019300009688B4201D214490B60104B1B6813439A
:101940006B6000232B6002E0002600E00026FFF71A
:10195000BFFD16F0070F0CD04FF0500383F3118832
:10196000BFF36F8FBFF34F8FFEE70026EFE7002630
:10197000EDE7304670BD00BF580100205C3D0020FF
:10198000603D0020683D0020643D002080B338B5F4
:101990000446A0F1080550F8042C164909680A42CB
:1019A00008D14FF0500383F31188BFF36F8FBFF35B
:1019B0004F8FFEE750F8080C40B14FF0500383F30F
:1019C0001188BFF36F8FBFF34F8FFEE722EA01024A
:1019D00044F8042CFFF7E8FC54F8041C064A13688A
:1019E0000B4413602846FFF721FFFFF771FD38BD58
:1019F000704700BF5C3D0020603D00200B4B1B6822
:101A0000B3F1FF3F08D04FF0500383F31188BFF3C9
:101A10006F8FBFF34F8FFEE74FF0500383F31188B2
:101A2000BFF36F8FBFF34F8FFEE700BF0C000020A6
:101A300006480068006880F3088862B661B6BFF3A4
:101A40004F8FBFF36F8F00DF00BF000008ED00E095
:101A5000DFF80C00016841F470010160704700007C
:101A600088ED00E04FF0807340F8043C21F0010164
:101A700040F8081C054B40F80C3C40F8202C6FF057
:101A8000020340F8243C4438704700BFFD190008A9
:101A9000074B19680868B0E8F04F80F30988BFF376
:101AA0006F8F4FF0000080F311887047AFF3008014
:101AB0002C0000204FF0500383F31188BFF36F8F89
:101AC000BFF34F8F0A4A136801331360012B00D014
:101AD0007047084B1B6813F0FF0FF9D04FF050030D
:101AE00083F31188BFF36F8FBFF34F8FFEE700BF03
:101AF0000C00002004ED00E0094B1B6843B94FF0D7
:101B0000500383F31188BFF36F8FBFF34F8FFEE74E
:101B1000013B034A13600BB983F31188704700BF80
:101B20000C00002000000000000000000000000089
:101B3000EFF30980BFF36F8F154B1A681EF0100F7B
:101B400008BF20ED108A20E9F04F10604DF8043DE9
:101B50004FF0500080F31188BFF34F8FBFF36F8FAA
:101B6000FFF79CFD4FF0000080F3118808BC196856
:101B70000868B0E8F04F1EF0100F08BFB0EC108AF4
:101B800080F30988BFF36F8F704700BFAFF3008009
:101B90002C00002008B54FF0500383F31188BFF3E9
:101BA0006F8FBFF34F8FFFF707FC18B1034B4FF058
:101BB00080521A60002383F3118808BD04ED00E011
:101BC000064B1B68064AA2FB03239B09013B054AFF
:101BD0001360054B07221A60704700BF0800002001
:101BE000D34D621014E000E010E000E0314B1A68C1
:101BF000314B9A421AD02F4B1A68304B9A421ED062
:101C000000B583B02E4B1A78D2B20192FF221A701F
:101C10001B78DBB28DF803309DF8033003F05003DE
:101C2000284A1370284B07221A601BE04FF050031C
:101C300083F31188BFF36F8FBFF34F8FFEE74FF031
:101C4000500383F31188BFF36F8FBFF34F8FFEE70D
:101C50001D4A1368013B13609DF803305B00DBB243
:101C60008DF803309DF8033013F0800FF0D1164A41
:101C700013681B0203F4E0631360019BDBB2104A9C
:101C80001370124B1A6842F470021A601A6842F01C
:101C900070421A60FFF794FF0D4B00221A60FFF7A5
:101CA000D7FE0C4A136843F040431360FFF7C0FEB1
:101CB000FFF7A4FE00ED00E071C20F4170C20F41BA
:101CC00000E400E0703D0020743D002020ED00E0C5
:101CD0000C00002034EF00E0DFF834D0002103E0F6
:101CE0000C4B5B58435004310B480C4B42189A4242
:101CF000F6D30B4A02E0002342F8043B094B9A4218
:101D0000F9D3FFF743F900F011F8FEF76BFC7047C9
:101D100000000220041E0008000000201000002027
:101D200010000020843D0020FEE7000070B50D4D3E
:101D30000D4C641BA4100026A64209D10B4D0C4C7F
:101D400000F020F8641BA4100026A64205D170BD47
:101D500055F8043B98470136EEE755F8043B9847A1
:101D60000136F2E7FC1D0008FC1D0008FC1D000800
:101D7000001E000802440346934200D1704703F856
:101D8000011BF9E7F8B500BFF8BC08BC9E467047D8
:0C1D9000F8B500BFF8BC08BC9E467047C8
:101D9C00D01D000825050008000000000000000010
:101DAC0080000000C41D0008310500080000000080
:101DBC0000000000800000006D795461736B3032BC
:101DCC000000000064656661756C745461736B008F
:101DDC0000000000000000000102030406070809CF
:081DEC0049444C4500000000D1
:081DF4000CE4FF7F0100000078
:041DFC00B501000825
:041E00009101000844
:101E040001000000100000000024F400AAAAAAAAFD
:0400000508001CD9FA
:00000001FF
